:100000000C9404010C9421010C9421010C94210105
:100010000C9421010C9421010C9421010C942101D8
:100020000C9421010C9421010C9421010C942101C8
:100030000C9421010C9421010C9421010C942101B8
:100040000C9421010C9421010C9421010C942101A8
:100050000C9469040C9438040C9421010C94210133
:100060000C9421010C9421010C9421010C94210188
:100070000C94C2040C9491040C9421015502550275
:10008000550255025502530253023D023F023F0200
:100090003F023F0241024102410241025302530228
:1000A0004302430243024302430253025302450206
:1000B00045024502450253025302530247024702DA
:1000C0004702470247025302530249024B024B02C6
:1000D0004B024B024D024D024D024D0253025302A0
:1000E0004F024F024F024F024F025302530251027E
:1000F000510251025102A802AC02B002BF02CE026C
:10010000D402DA02E0026E616E00696E66000040A1
:100110007A10F35A00A0724E18090010A5D4E80016
:1001200000E87648170000E40B54020000CA9A3B2E
:10013000000000E1F50500008096980000004042B4
:100140000F000000A0860100000010270000000042
:10015000E803000000006400000000000A00000046
:1001600000000100000000002C76D888DC674F08F2
:1001700023DFC1DFAE59E1B1B796E5E3E453C63AF8
:10018000E651997696E8E6C28426EB898C9B62ED6F
:10019000407C6FFCEFBC9C9F40F2BAA56FA5F49029
:1001A000055A2AF75C936B6CF9676DC11BFCE0E4A0
:1001B0000D47FEF520E6B500D0ED902E03009435F6
:1001C00077050080841E080000204E0A000000C849
:1001D0000C333333330F986E12831141EF8D21149A
:1001E000893BE65516CFFEE6DB18D1844B381BF76A
:1001F0007C1D901DA4BBE424203284725E22810009
:10020000C9F124ECA1E53D2711241FBECFEFD8E0B2
:10021000DEBFCDBF11E0A0E0B1E0E0E8F5E102C053
:1002200005900D92A034B107D9F721E0A0E4B1E028
:1002300001C01D92A23CB207E1F70E942F030C946B
:10024000BE0A0C94000008980998ECE7F0E0808161
:100250008F778083808180648083808180628083C7
:10026000EAE7F0E08081846080838081826080831F
:100270008081816080838081806880830895ECE73D
:10028000F0E09081987F8770892B8083EAE7F0E027
:10029000808180648083808186FDFDCF809179009C
:1002A0000895FC017183608342831382148281E08C
:1002B0008583168217820895FC01868181111FC0F3
:1002C0008381A081B181A80FB11D6C931582238118
:1002D000422F50E0828190E001974817590711F4AE
:1002E000138202C02F5F23836A3019F487818F5FE6
:1002F000878393818481981302C081E08683089567
:10030000FC018581811120C09481492F50E0A0819A
:10031000B181A40FB51F8C911682228130E021504B
:1003200031094217530711F4148202C09F5F94836E
:100330008A3019F4978191509783248193812913EE
:1003400004C091E09583089580E00895FC018581C3
:10035000089588B984EF91E0FC013197F1F717987F
:100360000197F1F7179A0895159881E00E94A90165
:1003700080E197E20197F1F7159A0895813011F025
:1003800080E001C082E0159884600E94A901159A5E
:100390000895813011F484E001C080E0613009F4F7
:1003A0008260413009F48160159888600E94A9013B
:1003B000159A08951F93CF93DF93182FC62FD42F2C
:1003C000159816988FEF87B981B1806E81B920E3B7
:1003D00028B98FEF9FEFFC013197F1F71798FC01D7
:1003E0003197F1F7179A28B9FC013197F1F717986F
:1003F0000197F1F7179A28B984EF91E0FC01319742
:10040000F1F71798FC013197F1F7179A28E328B90B
:10041000FC013197F1F717980197F1F7179A88E3E4
:100420000E94A901812F0E94BE014D2F6C2F81E0F7
:100430000E94C9010E94B401DF91CF911F910895DC
:10044000613011F490E401C090E01598890F806844
:100450000E94A901159A0895159A88231CF00E94FC
:10046000A901089590E0FC01E05CF109ED33F1058C
:10047000D0F4E25CFF4F0C94D70883E417C085E406
:1004800015C089E413C08FE411C085E50FC081E673
:100490000DC083E60BC085E609C089E607C08FE67C
:1004A00005C085E703C08FE301C081E40E94A90174
:1004B000089540E061E081E00E94DA01109241017C
:1004C0001092400108950E94B401109241010895D4
:1004D000CF93DF93803168F4623058F4D62FC82F61
:1004E0000E9420028C2F90E1D99F800D11248093CF
:1004F0004101DF91CF91089590914101292F2295DB
:100500002F70813049F49F3118F0109241010DC0D5
:100510009F5F9093410109C0911104C08FE18093C6
:10052000410103C0915090934101909141019295F6
:100530009F7081E0921301C080E0089590E08830C0
:10054000910508F042C0FC01E558FF4F0C94D70814
:1005500081E00E947C0239C080E00E947C0235C0AC
:1005600080914101803138F4805F8093410181E0C6
:10057000809340012AC080518093410126C0809120
:100580004101803138F08F708093410181E0809388
:1005900040011BC0805F8093410117C080914101E1
:1005A0008F608093410111C080914101807F8093D1
:1005B00041010BC0809141018F708093410105C0C2
:1005C00080914101805F8093410180914101682FBA
:1005D00062956F708F700E9420020895CF93C82F8C
:1005E000803268F48A3019F08D3029F020C083E021
:1005F0000E949E021CC085E00E949E0218C080914D
:100600004001813021F40E94B401109240018C2FEE
:100610000E942C0281E00E947C02813041F4809192
:100620004101682F62956F708F700E942002CF91F8
:1006300008950F931F93CF93FC018081882359F075
:100640008F01C0E00E94EE02CF5FF801EC0FF11DB8
:1006500080818111F7CFCF911F910F910895CF9392
:10066000DF93CDB7DEB7C857D1090FB6F894DEBF18
:100670000FBECDBF0A98129A0998119A0898109A3D
:1006800055985D9A57985F9A0E94590280E00E949F
:10069000090578940E9423010F2EFBE04F2EF02DC8
:1006A0000F2EF3E18F2EF1E09F2EF02DCE0101965B
:1006B0005C010F2EF2E2CF2EF1E0DF2EF02D7E0155
:1006C00099E2E90EF11C81E00E943F01782E682F2B
:1006D00080E00E9443052AE0721201C0742C80E081
:1006E0000E943F01082F682F80E00E9443050A30D6
:1006F00009F4042D83E00E943F01182F682F80E049
:100700000E9443051A3009F4142D60B162FB66277C
:1007100060F980E00E94430589B169B0661C6624D7
:10072000661C85FD2DC00E9463028AE0E0E0F1E0D6
:10073000DE01AF5ABF4F01900D928A95E1F761E05B
:1007400087E00E946802CE018F5A9F4F0E941903D2
:1007500061102FC00E94630289E0EAE0F1E0DE014F
:10076000AF5ABF4F01900D928A95E1F761E087E0A3
:100770000E946802CE018F5A9F4F0E94190302C047
:10078000611019C00E94630289E0EAE0F1E0DE0135
:10079000AF5ABF4F01900D928A95E1F761E087E073
:1007A0000E946802CE018F5A9F4F0E941903512C5C
:1007B00002C055245394652D80E00E9443056AE0F1
:1007C00080E00E9443051F927F921F920F939F9299
:1007D0008F92BF92AF920E943E0A60E080E00E943A
:1007E0006802C5010E9419031F921F93DF92CF92E6
:1007F000FF92EF920E943E0A61E080E00E94680250
:10080000C7010E94190361E08FE00E9468028FEF28
:1008100090E722E0815090402040E1F700C00000C6
:100820000FB6F894DEBF0FBECDBF4DCF882319F0B1
:10083000813039F00895E1ECF0E0808180628083BE
:100840000895E9ECF0E08081806280830895882338
:1008500019F0813039F00895E1ECF0E080818F7D6E
:1008600080830895E9ECF0E080818F7D8083089596
:100870001F920F920FB60F9211242F933F934F9315
:100880005F936F937F938F939F93AF93BF93EF93F8
:10089000FF9382E591E00E9480018093C60082E58B
:1008A00091E00E94A601813019F480E00E942704A3
:1008B000FF91EF91BF91AF919F918F917F916F9138
:1008C0005F914F913F912F910F900FBE0F901F900E
:1008D00018951F920F920FB60F9211242F933F93EA
:1008E0004F935F936F937F938F939F93AF93BF9338
:1008F000EF93FF936091C6008AE591E00E945C014E
:10090000FF91EF91BF91AF919F918F917F916F91E7
:100910005F914F913F912F910F900FBE0F901F90BD
:1009200018951F920F920FB60F9211242F933F9399
:100930004F935F936F937F938F939F93AF93BF93E7
:10094000EF93FF9382E491E00E9480018093CE00B8
:1009500082E491E00E94A601882319F081E00E94C0
:100960002704FF91EF91BF91AF919F918F917F915C
:100970006F915F914F913F912F910F900FBE0F900C
:100980001F9018951F920F920FB60F9211242F935C
:100990003F934F935F936F937F938F939F93AF9307
:1009A000BF93EF93FF936091CE008AE491E00E94A1
:1009B0005C01FF91EF91BF91AF919F918F917F91DA
:1009C0006F915F914F913F912F910F900FBE0F90BC
:1009D0001F901895882319F0813071F00895E62F43
:1009E000F0E0EE0FFF1FE35DFE4F80819181909359
:1009F000C5008093C4000895E62FF0E0EE0FFF1FBE
:100A0000E35DFE4F808191819093CD008093CC0077
:100A10000895CF93C82F882319F08130C1F02DC0DD
:100A200086E08093C20088E98093C1001092C000E4
:100A300040E262EA71E08AE591E00E94510140E201
:100A400062E871E082E591E00E94510116C086E003
:100A50008093CA0088E98093C9001092C80040E1E1
:100A600062E771E08AE491E00E94510140E162E6B0
:100A700071E082E491E00E94510162E08C2F0E94BB
:100A8000EA04CF910895CF93DF93C82FD62F0E9409
:100A90002704EC2FF0E0EE0FFF1FE75DFE4F6D2FF8
:100AA000808191810E945C018C2F0E941604DF914D
:100AB000CF910895A0E1B0E0E0E6F5E00C94DD0808
:100AC0007C011B016A01FC0117821682838181FF70
:100AD00044C39E012F5F3F4F3901F7019381F1011C
:100AE00093FD859193FF81911F01882309F431C300
:100AF000853239F493FD859193FF81911F018532F1
:100B000039F4B70190E00E94020A56016501E5CF71
:100B100010E0512C912CFFE1F915D8F08B3279F0CF
:100B200038F4803279F08332A1F4F92DF0612EC0CF
:100B30008D3261F0803369F4292D21602DC0392D6B
:100B40003260932E892D8460982E2AC0E92DE860AA
:100B500015C097FC2DC020ED280F2A3088F496FE92
:100B600006C03AE0139F200D1124122F19C08AE00D
:100B7000589E200D1124522EE92DE0629E2E10C0A9
:100B80008E3231F496FCE5C2F92DF0649F2E08C038
:100B90008C3621F4292D2068922E02C0883641F42B
:100BA000F10193FD859193FF81911F018111B3CFD5
:100BB0009BEB980F933020F4992D9061805E07C0D5
:100BC0009BE9980F933008F066C1992D9F7E96FFA0
:100BD00016E09F73992E853619F49064992E08C0FB
:100BE000863621F4392F3068932E02C0111111502E
:100BF00097FE07C01C3350F444244394410E27E071
:100C00000BC0183038F027E017E005C027E09CE360
:100C1000492E02C0212F412C560184E0A80EB11CA0
:100C2000F6016081718182819381042DA3010E946C
:100C300014096C01F981FC87F0FF02C0F3FF06C0C4
:100C400091FC06C092FE06C000E205C00DE203C0A2
:100C50000BE201C000E08C858C7019F001115AC2C2
:100C60009BC297FE10C04C0CFC85F4FF04C08A8127
:100C7000813309F44A94141474F528E0241578F5A6
:100C800088E0482E2CC096FC2AC0812F90E08C155D
:100C90009D059CF03CEFC3163FEFD30674F0892D01
:100CA0008068982E0AC0E2E0F0E0EC0FFD1FE10F33
:100CB000F11D8081803319F411501111F4CF97FE8A
:100CC0000EC044244394410E812F90E0C816D906EB
:100CD0002CF41C1904C04424439401C010E097FE76
:100CE00006C01C141D0434F4C601019605C085E03D
:100CF00090E002C081E090E001110196112331F0F3
:100D0000212F30E02F5F3F4F820F931F252D30E0C2
:100D10008217930714F4581A01C0512C892D897039
:100D200049F4552039F0B70180E290E00E94020AB0
:100D30005A94F7CF002329F0B701802F90E00E944A
:100D4000020A93FC09C0552039F0B70180E390E016
:100D50000E94020A5A94F7CF97FE4CC04601D7FE74
:100D600002C0812C912CC60188199909F301E80F62
:100D7000F91FFE87ED87960124193109388B2F87DB
:100D8000012F10E01195019511093FEF831693068D
:100D900029F4B7018EE290E00E94020AC814D90437
:100DA0004CF08F8598898815990524F4ED85FE858A
:100DB000818101C080E3F1E08F1A91082D853E8585
:100DC0002F5F3F4F3E872D87801691062CF0B7018D
:100DD00090E00E94020AD9CFC814D90441F49A8144
:100DE000963320F4953319F43C8534FF81E3B70141
:100DF00090E04EC08A81813319F09C859F7E9C874C
:100E0000B70190E00E94020A111105C094FC18C0BD
:100E100085E690E017C0B7018EE290E00E94020ADA
:100E20001E5F82E001E0080FF301E80FF11D8081F1
:100E3000B70190E00E94020A802F0113F3CFE6CFA2
:100E400085E490E0B7010E94020AD7FC06C0C114F5
:100E5000D10441F4EC85E4FF05C0D194C194D108DC
:100E60008DE201C08BE2B70190E00E94020A80E3AC
:100E70002AE0C216D1042CF08F5FFAE0CF1AD10815
:100E8000F7CFB70190E00E94020AB701C601C096F1
:100E90000E94020A54C1833631F0833779F08335DA
:100EA00009F056C020C0560132E0A30EB11CF60175
:100EB0008081898301E010E0630112C05601F2E0F5
:100EC000AF0EB11CF601C080D18096FE03C0612F29
:100ED00070E002C06FEF7FEFC6010E94F7098C013E
:100EE000F92DFF7714C0560122E0A20EB11CF601C5
:100EF000C080D18096FE03C0612F70E002C06FEF0A
:100F00007FEFC6010E94EC098C01F92DF0689F2E3D
:100F1000F3FD1AC0852D90E008171907A8F4B70152
:100F200080E290E00E94020A5A94F4CFF60197FC06
:100F3000859197FE81916F01B70190E00E94020AAE
:100F400051105A94015011090115110579F7F7C094
:100F5000843611F0893661F5560197FE09C024E008
:100F6000A20EB11CF60160817181828193810AC059
:100F7000F2E0AF0EB11CF60160817181072E000C0A
:100F8000880B990BF92DFF769F2E97FF09C090953E
:100F90008095709561957F4F8F4F9F4FF0689F2E82
:100FA0002AE030E0A3010E94600AC82EC6183FC0A4
:100FB000092D853721F40F7E2AE030E01DC0097F1E
:100FC0008F3691F018F4883559F0C3C0803719F086
:100FD000883711F0BEC0006104FF09C0046007C07B
:100FE00094FE08C0066006C028E030E005C020E19D
:100FF00030E002C020E132E0560107FF09C084E082
:10100000A80EB11CF601608171818281938108C0B4
:10101000F2E0AF0EB11CF6016081718180E090E0DA
:10102000A3010E94600AC82EC6180F77902E96FE64
:101030000BC0092D0E7FC11650F494FE0AC092FC1D
:1010400008C0092D0E7E05C0DC2C092D03C0DC2C48
:1010500001C0D12E04FF0DC0FE01EC0DF11D8081F9
:10106000803311F4097E09C002FF06C0D394D394E3
:1010700004C0802F867809F0D39403FD11C000FFCF
:1010800006C01C2DD51480F4150D1D190DC0D514E6
:1010900058F4B70180E290E00E94020AD394F7CF9F
:1010A000D51410F45D1801C0512C04FF10C0B70115
:1010B00080E390E00E94020A02FF17C001FD03C016
:1010C00088E790E002C088E590E0B7010CC0802F6F
:1010D000867859F001FF02C08BE201C080E207FD73
:1010E0008DE2B70190E00E94020AC11638F4B70100
:1010F00080E390E00E94020A1150F7CFCA94F301F6
:10110000EC0DF11D8081B70190E00E94020AC11030
:10111000F5CF15C0F4E0F51560F584E0581A93FE9C
:101120001FC0011127C02C8523FF2AC006E011E053
:10113000392D3071932EF8018491811124C05520EE
:1011400009F4E4CCB70180E290E00E94020A5A94CC
:10115000F6CFF7018681978126C08FEF9FEF23C0DE
:10116000B70180E290E00E94020A5A945110F8CF31
:10117000D8CF512CB701802F90E00E94020AD3CF24
:101180000AE011E0D5CF91108052B70190E00E94A3
:10119000020A0F5F1F4FCFCF23E0251510F483E025
:1011A000BDCF512CC0CF6096E2E10C94F908EE0F50
:1011B000FF1F0590F491E02D09942F923F924F92DA
:1011C0005F926F927F928F929F92AF92BF92CF92D7
:1011D000DF92EF92FF920F931F93CF93DF93CDB7E0
:1011E000DEB7CA1BDB0B0FB6F894DEBF0FBECDBF58
:1011F00009942A88398848885F846E847D848C8429
:101200009B84AA84B984C884DF80EE80FD800C8131
:101210001B81AA81B981CE0FD11D0FB6F894DEBF14
:101220000FBECDBFED010895283008F027E0332729
:10123000DA01990F311D87FD9160009661057105F6
:1012400039F432602E5F3D9330E32A95E1F708953B
:101250009F3F30F080387105610509F03C5F3C5FCD
:101260003D93913008F08068911DDF93CF931F93D9
:101270000F93FF92EF92192F987F9695E92F9695ED
:101280009695E90FFF27E859FE4F99273327EE245B
:10129000FF24A701E70105900894079428F4360F6E
:1012A000E71EF81E491F511D660F771F881F991FE3
:1012B0000694A1F70590079428F4E70EF81E491F3D
:1012C000561FC11D770F881F991F661F0694A1F72F
:1012D0000590079428F4F80E491F561FC71FD11D0B
:1012E000880F991F661F771F0694A1F70590079432
:1012F00020F4490F561FC71FD81F990F661F771F6D
:10130000881F0694A9F784911095177041F0D6951F
:10131000C79557954795F794E7941A95C1F7EEE06E
:10132000F1E068941590159135916591959105902E
:101330007FE27395E118F10A430B560BC90BD009F4
:10134000C0F7E10CF11E431F561FC91FD01D7EF4CC
:10135000703311F48A95E6CFE894015030F0080F0D
:101360000AF40027021708F4202F2395022F7A335E
:1013700028F079E37D932A95E9F710C07D932A95AB
:1013800089F6069497956795379517951794E11800
:10139000F10A430B560BC90BD00998F023957E91A7
:1013A00073957A3308F070E37C932013B8F77E913D
:1013B00070617D9330F0839571E37D9370E32A959E
:1013C000E1F71124EF90FF900F911F91CF91DF91E2
:1013D000992787FD90950895FC0105906150704014
:1013E0000110D8F7809590958E0F9F1F0895FC01EE
:1013F0006150704001900110D8F7809590958E0F44
:101400009F1F08950F931F93CF93DF93FB012381B9
:1014100021FD03C08FEF9FEF2CC022FF16C0468135
:101420005781248135814217530744F4A081B1814B
:101430009D012F5F3F4F318320838C93268137811D
:101440002F5F3F4F3783268314C08B01EC01FB01D4
:101450000084F185E02D0995892BE1F6D8011696D7
:101460008D919C911797019617969C938E93169742
:10147000CE01DF91CF911F910F910895AEE0B0E0C2
:10148000E4E4FAE00C94EB080D891E8986E08C8375
:101490001A8309838FEF9FE79E838D83AE01475E9A
:1014A0005F4F6F89788DCE0101960E945A05EF81BA
:1014B000F885E00FF11F10822E96E4E00C940709E6
:1014C000FA01AA27283051F1203181F1E8946F9375
:1014D0006E7F6E5F7F4F8F4F9F4FAF4FB1E03ED01B
:1014E000B4E03CD0670F781F891F9A1FA11D680FB9
:1014F000791F8A1F911DA11D6A0F711D811D911DEC
:10150000A11D20D009F468943F912AE0269F112460
:101510003019305D3193DEF6CF010895462F4770C4
:10152000405D4193B3E00FD0C9F7F6CF462F4F701F
:10153000405D4A3318F0495D31FD4052419302D07D
:10154000A9F7EACFB4E0A695979587957795679523
:10155000BA95C9F700976105710508959B01AC0123
:101560000A2E06945795479537952795BA95C9F74A
:10157000620F731F841F951FA01D0895F894FFCF5D
:101580006D6F6465206175746F006D6F6465206DAB
:10159000616E00783A202533642C20793A20253377
:1015A0006400673A202533640052014201CF00678E
:1015B00000330019000C00080003000100010000C6
:00000001FF
