:100000000C9483000C94A0000C94A0000C94A0000D
:100010000C94A0000C94A0000C94A0000C94A000E0
:100020000C94A0000C94A0000C94A0000C94A000D0
:100030000C94A0000C94A0000C94A0000C94A000C0
:100040000C94A0000C94A0000C94A0000C94A000B0
:100050000C9445030C9414030C94A0000C94A00081
:100060000C94A0000C94A0000C94A0000C94A00090
:100070000C949E030C946D030C94A000C901C9015B
:10008000C901C901C901C701C701B101B301B30168
:10009000B301B301B501B501B501B501C701C70190
:1000A000B701B701B701B701B701C701C701B9016E
:1000B000B901B901B901C701C701C701BB01BB0142
:1000C000BB01BB01BB01C701C701BD01BF01BF012E
:1000D000BF01BF01C101C101C101C101C701C70108
:1000E000C301C301C301C301C301C701C701C501E6
:1000F000C501C501C50117021B021F022E023D02E8
:10010000430249024F0211241FBECFEFD8E0DEBFE9
:10011000CDBF11E0A0E0B1E0E0E5FEE002C0059057
:100120000D92A632B107D9F721E0A6E2B1E001C0F5
:100130001D92A43AB207E1F70E94AC020C94260784
:100140000C94000008980998ECE7F0E080818F7724
:100150008083808180648083808180628083EAE7FD
:10016000F0E08081846080838081826080838081F0
:10017000816080838081806880830895ECE7F0E06F
:100180009081987F8770892B8083EAE7F0E08081F7
:1001900080648083808186FDFDCF80917900089501
:1001A000FC017183608342831382148281E0858322
:1001B00016820895FC01868181111AC08381A08175
:1001C000B181A80FB11D6C9315822381422F50E09D
:1001D000828190E001974817590711F4138202C0F9
:1001E0002F5F238393818481981302C081E08683EB
:1001F0000895FC01858181111BC09481492F50E035
:10020000A081B181A40FB51F8C911682228130E0AC
:10021000215031094217530711F4148202C09F5F25
:10022000948324819381291304C091E095830895D8
:1002300080E00895FC018581089588B984EF91E0FC
:10024000FC013197F1F717980197F1F7179A089584
:10025000159881E00E941D0180E197E20197F1F776
:10026000159A0895813011F080E001C082E0159860
:1002700084600E941D01159A0895813011F484E074
:1002800001C080E0613009F48260413009F481608E
:10029000159888600E941D01159A08951F93CF93A9
:1002A000DF93182FC62FD42F159816988FEF87B984
:1002B00081B1806E81B920E328B98FEF9FEFFC01F7
:1002C0003197F1F71798FC013197F1F7179A28B990
:1002D000FC013197F1F717980197F1F7179A28B9B0
:1002E00084EF91E0FC013197F1F71798FC01319709
:1002F000F1F7179A28E328B9FC013197F1F717981D
:100300000197F1F7179A88E30E941D01812F0E943F
:1003100032014D2F6C2F81E00E943D010E94280187
:10032000DF91CF911F910895613011F490E401C0E5
:1003300090E01598890F80680E941D01159A089514
:10034000159A88231CF00E941D01089590E0FC017D
:10035000E05CF109ED33F105D0F4E25CFF4F0C9461
:10036000360483E417C085E415C089E413C08FE424
:1003700011C085E50FC081E60DC083E60BC085E6A0
:1003800009C089E607C08FE605C085E703C08FE393
:1003900001C081E40E941D01089540E061E081E018
:1003A0000E944E0110922701109226010895CF93CA
:1003B000DF93803168F4623058F4D62FC82F0E9442
:1003C00094018C2F90E1D99F800D112480932701F7
:1003D000DF91CF91089590912701292F22952F70B9
:1003E000813049F49F3118F0109227010DC09F5FB2
:1003F0009093270109C0911104C08FE180932701D8
:1004000003C09150909327019091270192959F707E
:1004100081E0921301C080E0089590E0883091055A
:1004200008F042C0FC01E558FF4F0C94360481E00F
:100430000E94EB0139C080E00E94EB0135C0809141
:100440002701803138F4805F8093270181E0809319
:1004500026012AC080518093270126C08091270160
:10046000803138F08F708093270181E080932601DE
:100470001BC0805F8093270117C0809127018F6088
:100480008093270111C080912701807F80932701ED
:100490000BC0809127018F708093270105C0809148
:1004A0002701805F8093270180912701682F629543
:1004B0006F708F700E9494010895CF93C82F80327F
:1004C00068F48A3019F08D3029F020C083E00E9452
:1004D0000D021CC085E00E940D0218C0809126010B
:1004E000813021F40E942801109226018C2F0E9455
:1004F000A00181E00E94EB01813041F4809127014D
:10050000682F62956F708F700E949401CF9108954B
:100510000F931F93CF93FC018081882359F08F01A3
:10052000C0E00E945D02CF5FF801EC0FF11D8081F9
:100530008111F7CFCF911F910F91089561E080E075
:100540000E94D701809100010E945D02809100010C
:100550008F5F809300010895CF93DF93CDB7DEB70F
:10056000A8970FB6F894DEBF0FBECDBF0A98129AB7
:100570000E94CD0180E00E94E50378940E94A200D1
:100580000F2EF1E0CF2EF1E0DF2EF02DCE010196FF
:100590007C0181E00E94BE00182F1F928F93DF9292
:1005A000CF92FF92EF920E943C0460E080E00E94B4
:1005B000D701C7010E948802612F80E00E941F04BA
:1005C0000E949E029FEF20E782E0915020408040F1
:1005D000E1F700C000000F900F900F900F900F9068
:1005E0000F90D7CF882319F0813039F00895E1ECCE
:1005F000F0E08081806280830895E9ECF0E0808102
:10060000806280830895882319F0813039F008953D
:10061000E1ECF0E080818F7D80830895E9ECF0E0EB
:1006200080818F7D808308951F920F920FB60F9265
:1006300011242F933F934F935F936F937F938F93E7
:100640009F93AF93BF93EF93FF9386E391E00E9454
:10065000F9008093C60086E391E00E941A01813080
:1006600019F480E00E940303FF91EF91BF91AF91D5
:100670009F918F917F916F915F914F913F912F91BA
:100680000F900FBE0F901F9018951F920F920FB6EC
:100690000F9211242F933F934F935F936F937F9308
:1006A0008F939F93AF93BF93EF93FF936091C60097
:1006B0008DE391E00E94DA00FF91EF91BF91AF913D
:1006C0009F918F917F916F915F914F913F912F916A
:1006D0000F900FBE0F901F9018951F920F920FB69C
:1006E0000F9211242F933F934F935F936F937F93B8
:1006F0008F939F93AF93BF93EF93FF9388E291E023
:100700000E94F9008093CE0088E291E00E941A01D5
:10071000882319F081E00E940303FF91EF91BF91BC
:10072000AF919F918F917F916F915F914F913F9189
:100730002F910F900FBE0F901F9018951F920F9240
:100740000FB60F9211242F933F934F935F936F93A4
:100750007F938F939F93AF93BF93EF93FF9360919A
:10076000CE008FE291E00E94DA00FF91EF91BF91FD
:10077000AF919F918F917F916F915F914F913F9139
:100780002F910F900FBE0F901F901895882319F08E
:10079000813071F00895E62FF0E0EE0FFF1FED5E5F
:1007A000FE4F808191819093C5008093C40008958D
:1007B000E62FF0E0EE0FFF1FED5EFE4F808191818E
:1007C0009093CD008093CC000895CF93C82F8823B9
:1007D00019F08130C1F02DC086E08093C20088E915
:1007E0008093C1001092C00040E264E871E08DE3A4
:1007F00091E00E94D00040E264E671E086E391E07F
:100800000E94D00016C086E08093CA0088E98093D9
:10081000C9001092C80040E164E571E08FE291E008
:100820000E94D00040E164E471E088E291E00E941F
:10083000D00062E08C2F0E94C603CF910895CF9321
:10084000DF93C82FD62F0E940303EC2FF0E0EE0FAA
:10085000FF1FE15FFE4F6D2F808191810E94DA00C2
:100860008C2F0E94F202DF91CF910895EE0FFF1FAF
:100870000590F491E02D0994AEE0B0E0E2E4F4E0FC
:100880000C94FD060D891E8986E08C831A830983EA
:100890008FEF9FE79E838D83AE01475E5F4F6F8929
:1008A000788DCE0101960E945E04EF81F885E00FFD
:1008B000F11F10822E96E4E00C941907ABE0B0E033
:1008C000E4E6F4E00C94EF066C017B018A01FC0184
:1008D00017821682838181FFCCC1CE0101963C0133
:1008E000F6019381F70193FD859193FF81917F013B
:1008F000882309F4BAC1853239F493FD859193FFB9
:1009000081917F01853229F4B60190E00E9455065D
:10091000E7CF912C212C312CFFE1F315D8F08B324D
:1009200079F038F4803279F08332A1F4232D2061FC
:100930001DC08D3261F0803369F4232D216016C013
:10094000832D8260382EE32DE4603E2E2AC0F32DE5
:10095000F8601DC037FC2DC020ED280F2A3040F074
:100960008E32B9F436FC81C1232D2064322E19C099
:1009700036FE06C08AE0989E200D1124922E11C0EA
:10098000EAE02E9E200D1124222EF32DF0623F2E40
:1009900008C08C3621F4832D8068382E02C088363A
:1009A00041F4F70193FD859193FF81917F018111BE
:1009B000B3CF982F9F7D9554933028F40C5F1F4F31
:1009C0009FE399830DC0833631F0833771F083350F
:1009D00009F059C021C0F801808189830E5F1F4F43
:1009E00088248394912C530113C02801F2E04F0E08
:1009F000511CF801A080B18036FE03C0692D70E063
:100A000002C06FEF7FEFC5010E944A064C018201D0
:100A1000F32DFF773F2E16C0280122E0420E511C15
:100A2000F801A080B18036FE03C0692D70E002C0DD
:100A30006FEF7FEFC5010E943F064C01F32DF06878
:100A40003F2E820133FC1BC0822D90E08816990650
:100A5000B0F4B60180E290E00E9455062A94F4CFEB
:100A6000F50137FC859137FE81915F01B60190E079
:100A70000E94550621102A9421E0821A91088114BF
:100A8000910471F7E8C0843611F0893641F5F80118
:100A900037FE07C060817181828193810C5F1F4F97
:100AA00008C060817181072E000C880B990B0E5FC6
:100AB0001F4FF32DFF763F2E97FF09C0909580952D
:100AC000709561957F4F8F4F9F4FF0683F2E2AE0C2
:100AD00030E0A3010E949106882E861845C0853714
:100AE00031F4232D2F7EB22E2AE030E025C0932D45
:100AF000997FB92E8F36C1F018F4883579F0B5C0DA
:100B0000803719F0883721F0B0C0E92FE061BE2EA0
:100B1000B4FE0DC0FB2DF460BF2E09C034FE0AC028
:100B2000292F2660B22E06C028E030E005C020E163
:100B300030E002C020E132E0F801B7FE07C060817A
:100B40007181828193810C5F1F4F06C0608171812A
:100B500080E090E00E5F1F4FA3010E949106882E57
:100B60008618FB2DFF773F2E36FE0DC0232D2E7FDE
:100B7000A22E891458F434FE0BC032FC09C0832D18
:100B80008E7EA82E05C0B82CA32C03C0B82C01C0A3
:100B9000B92CA4FE0FC0FE01E80DF11D8081803349
:100BA00021F49A2D997EA92E09C0A2FE06C0B39405
:100BB000B39404C08A2D867809F0B394A3FC11C0C5
:100BC000A0FE06C0B21488F4280C922C9B180EC00C
:100BD000B21460F4B60180E290E00E945506B3942E
:100BE000F7CFB21418F42B1802C0982C212CA4FEB5
:100BF00010C0B60180E390E00E945506A2FE17C027
:100C0000A1FC03C088E790E002C088E590E0B6014F
:100C10000CC08A2D867859F0A1FE02C08BE201C07B
:100C200080E2A7FC8DE2B60190E00E94550689148F
:100C300038F4B60180E390E00E9455069A94F7CF0D
:100C40008A94F301E80DF11D8081B60190E00E94C5
:100C500055068110F5CF222009F442CEB60180E27C
:100C600090E00E9455062A94F6CFF601868197817E
:100C700002C08FEF9FEF2B96E2E10C940B07FC0173
:100C80000590615070400110D8F7809590958E0FB7
:100C90009F1F0895FC016150704001900110D8F72A
:100CA000809590958E0F9F1F08950F931F93CF935C
:100CB000DF93FB01238121FD03C08FEF9FEF2CC049
:100CC00022FF16C046815781248135814217530780
:100CD00044F4A081B1819D012F5F3F4F3183208378
:100CE0008C93268137812F5F3F4F3783268314C033
:100CF0008B01EC01FB010084F185E02D0995892B26
:100D0000E1F6D80116968D919C911797019617964A
:100D10009C938E931697CE01DF91CF911F910F91E7
:100D20000895FA01AA27283051F1203181F1E89481
:100D30006F936E7F6E5F7F4F8F4F9F4FAF4FB1E0CE
:100D40003ED0B4E03CD0670F781F891F9A1FA11DC9
:100D5000680F791F8A1F911DA11D6A0F711D811DCA
:100D6000911DA11D20D009F468943F912AE0269F8F
:100D700011243019305D3193DEF6CF010895462FEE
:100D80004770405D4193B3E00FD0C9F7F6CF462FCF
:100D90004F70405D4A3318F0495D31FD4052419338
:100DA00002D0A9F7EACFB4E0A695979587957795F5
:100DB0006795BA95C9F700976105710508959B017C
:100DC000AC010A2E06945795479537952795BA9505
:100DD000C9F7620F731F841F951FA01D08952F92DE
:100DE0003F924F925F926F927F928F929F92AF92BB
:100DF000BF92CF92DF92EF92FF920F931F93CF9308
:100E0000DF93CDB7DEB7CA1BDB0B0FB6F894DEBF9E
:100E10000FBECDBF09942A88398848885F846E84C4
:100E20007D848C849B84AA84B984C884DF80EE800E
:100E3000FD800C811B81AA81B981CE0FD11D0FB617
:100E4000F894DEBF0FBECDBFED010895F894FFCF3B
:100E500031506F736974696F6E3A202533640036C0
:100E6000012801CF006700330019000C00080003BF
:060E70000001000100007A
:00000001FF
