:100000000C9483000C9422030C94A0000C94A00088
:100010000C94A0000C94A0000C94A0000C94A000E0
:100020000C94A0000C94A0000C94A0000C94A000D0
:100030000C94A0000C94A0000C94A0000C947103EC
:100040000C94A0000C94A0000C94A0000C94A000B0
:100050000C94B9060C9488060C94A0000C94A00093
:100060000C94A0000C94A0000C94A0000C94A00090
:100070000C9412070C94E1060C94A000480248026C
:100080004802480248024602460230023202320268
:100090003202320234023402340234024602460290
:1000A000360236023602360236024602460238026E
:1000B0003802380238024602460246023A023A0242
:1000C0003A023A023A02460246023C023E023E022E
:1000D0003E023E0240024002400240024602460208
:1000E00042024202420242024202460246024402E6
:1000F0004402440244029B029F02A302B202C102D4
:10010000C702CD02D30211241FBECFEFD8E0DEBF5D
:10011000CDBF11E0A0E0B1E0E0E8F6E102C005905B
:100120000D92A037B107D9F723E0A0E7B1E001C0F5
:100130001D92A538B207E1F70E949A030C943E0B7A
:100140000C940000089809980A98ECE7F0E0808188
:100150008F778083808180648083808180628083C8
:10016000EAE7F0E080818460808380818260808320
:100170008081816080838081806880830895239A54
:10018000249A84B5806A84BD84B58F7A84BD84B591
:10019000816084BD84B58D7F84BD16BC85B58160CA
:1001A00085BD85B5897F85BD089587BD089588BDC6
:1001B00008959C01549A559AE0E8F0E080818068A7
:1001C000808380818F7B80839081906290839081F7
:1001D0009F7E9083A1E8B0E09C9190619C939C915C
:1001E00098609C9390819260908390819E7F908391
:1001F000109285001092840030938700209386002F
:100200008C918B7F8C938C9182608C938C918E7F60
:100210008C93EFE6F0E08081816080830895909375
:10022000890080938800089590938B0080938A00C2
:100230000895569A579AE0EBF0E0808180688083B9
:1002400080818F7B808380818062808380818F7EAC
:10025000808380818160808380818D7F8083109204
:10026000B200E1EBF0E080818B7F8083808182604F
:10027000808380818E7F808308958093B400089569
:10028000FC017183608342831382148281E0858341
:10029000168217820895FC01868181111FC0838117
:1002A000A081B181A80FB11D6C9315822381422FCB
:1002B00050E0828190E001974817590711F41382AA
:1002C00002C02F5F23836A3019F487818F5F878391
:1002D00093818481981302C081E086830895FC0194
:1002E0008581811120C09481492F50E0A081B18186
:1002F000A40FB51F8C911682228130E02150310964
:100300004217530711F4148202C09F5F94838A300E
:1003100019F497819150978324819381291304C004
:1003200091E09583089580E00895FC01858108950A
:10033000FC01878190E0089588B984EF91E0FC0189
:100340003197F1F717980197F1F7179A08951598D3
:1003500081E00E949C0180E197E20197F1F7159AF4
:100360000895813011F080E001C082E0159884602A
:100370000E949C01159A0895813011F484E001C017
:1003800080E0613009F48260413009F481601598A1
:1003900088600E949C01159A08951F93CF93DF9364
:1003A000182FC62FD42F159816988FEF87B981B1C3
:1003B000806E81B920E328B98FEF9FEFFC01319760
:1003C000F1F71798FC013197F1F7179A28B9FC015A
:1003D0003197F1F717980197F1F7179A28B984EF39
:1003E00091E0FC013197F1F71798FC013197F1F793
:1003F000179A28E328B9FC013197F1F7179801976C
:10040000F1F7179A88E30E949C01812F0E94B101A5
:100410004D2F6C2F81E00E94BC010E94A701DF914B
:10042000CF911F910895613011F490E401C090E0E4
:100430001598890F80680E949C01159A0895159A55
:1004400088231CF00E949C01089590E0FC01E05C70
:10045000F109ED33F105D0F4E25CFF4F0C944E0846
:1004600083E417C085E415C089E413C08FE411C08C
:1004700085E50FC081E60DC083E60BC085E609C0A7
:1004800089E607C08FE605C085E703C08FE301C09A
:1004900081E40E949C01089540E061E081E00E94B7
:1004A000CD01109271011092700108950E94A70170
:1004B000109271010895CF93DF93803168F4623018
:1004C00058F4D62FC82F0E9413028C2F90E1D99F89
:1004D000800D112480937101DF91CF910895909147
:1004E0007101292F22952F70813049F49F3118F026
:1004F000109271010DC09F5F9093710109C091111D
:1005000004C08FE18093710103C0915090937101F9
:100510009091710192959F7081E0921301C080E0EB
:10052000089590E08830910508F042C0FC01E5583C
:10053000FF4F0C944E0881E00E946F0239C080E0AA
:100540000E946F0235C080917101803138F4805F64
:100550008093710181E0809370012AC08051809363
:10056000710126C080917101803138F08F708093C5
:10057000710181E0809370011BC0805F80937101E5
:1005800017C0809171018F608093710111C08091BB
:100590007101807F809371010BC0809171018F7018
:1005A0008093710105C080917101805F809371011A
:1005B00080917101682F62956F708F700E94130295
:1005C0000895CF93C82F803268F48A3019F08D30A7
:1005D00029F020C083E00E9491021CC085E00E94A7
:1005E000910218C080917001813021F40E94A7010E
:1005F000109270018C2F0E941F0281E00E946F02F6
:10060000813041F480917101682F62956F708F7015
:100610000E941302CF9108950F931F93CF93FC0173
:100620008081882359F08F01C0E00E94E102CF5FF2
:10063000F801EC0FF11D80818111F7CFCF911F914F
:100640000F9108951F920F920FB60F9211242F93BE
:100650003F934F935F936F937F938F939F93AF934A
:10066000BF934B9B09C081E080930001809175018D
:100670008F5F8093750107C08091750181508093D1
:10068000750110920001809175018F3F21F487E17F
:100690008093750106C080917501883110F0109229
:1006A00075014091750128E631E0429FC001439FEA
:1006B000900D112468E170E00E943A0870935C0389
:1006C00060935B03BF91AF919F918F917F916F91E9
:1006D0005F914F913F912F910F900FBE0F901F9000
:1006E00018951F920F920FB60F9211242F938F938C
:1006F0009F9380917301909174010196909374017E
:10070000809373018091730190917401883E9340AE
:1007100048F01092740110927301809172018F5F02
:10072000809372019F918F912F910F900FBE0F9028
:100730001F901895CF93DF93CDB7DEB7A8970FB66C
:10074000F894DEBF0FBECDBF529853980898099811
:100750005A9A5B9A109A119AE89AE9E6F0E0808139
:100760008260808380818E7F808378940E944C0297
:1007700080E00E945907229A0E94A2000E94BF00B6
:1007800088EE93E00E94D90080E29EE40E9414016A
:100790000E9419010F2EFCE3AF2EF1E0BF2EF02DC9
:1007A0000F2EF3E3EF2EF3E0FF2EF02D0F2EFBE4E0
:1007B000CF2EF1E0DF2EF02D0F2EFDE52F2EF3E0F2
:1007C0003F2EF02D0F2EF2EE8F2EF2E09F2EF02D09
:1007D00080E00E94D507892BD9F348E2BE016F5F04
:1007E0007F4F80E00E94E00709811A817B806C8046
:1007F0005D801938C9F480E00E94D7001F9229E873
:100800002F9381E091E09F938F9381E090E08C0F94
:100810009D1F9F938F930E9454080F900F900F90ED
:100820000F900F900F900FC0173838F4812F880F5A
:1008300080950E94D7002A9A06C01C3820F0812F8C
:100840000E94D7002A980C3821F480E00E94D5003D
:100850000FC0023838F4802F880F80950E94D50091
:10086000299A06C0023920F0802F0E94D5002998CD
:100870008DEC870D8A3920F480E00E943D0111C083
:100880009DEC971528F4872D0E943D01289A09C0F8
:1008900022E3271530F0872D880F80950E943D01B7
:1008A000289831E0631205C088EE93E00E940F01A2
:1008B00006C0611004C088E893E10E940F0160B097
:1008C00040B080B183FB882780F980930A0381E0E0
:1008D0005812D9C10E9456028091730190917401FF
:1008E000209172019F938F931F922F9341FA44247A
:1008F00040F81F924F92862D81701F928F932AE0AD
:1009000031E03F932F939F928F920E94540860E0B2
:1009100080E00E945B02C4010E940C032091000150
:1009200080915B0390915C031F922F939F938F9311
:100930002EE131E03F932F932BE033E03F932F9351
:100940000E94540861E080E00E945B028BE093E02B
:100950000E940C03809172010FB6F894DEBF0FBEA7
:10096000CDBF893708F454C00E94560280917301AC
:1009700090917401209172019F938F931F922F93F6
:1009800080E391E09F938F939F928F920E945408EF
:1009900060E086E00E945B02C4010E940C0380912B
:1009A000730190917401209172019F938F931F9214
:1009B0002F9385E391E09F938F938BE093E09F9338
:1009C0008F930E94540861E085E00E945B028BE0F7
:1009D00093E00E940C033FEF83ED90E331508040A1
:1009E0009040E1F700C000000E94560261E08FE0F5
:1009F0000E945B022FEF39E688E1215030408040B1
:100A0000E1F700C000000FB6F894DEBF0FBECDBF07
:100A100080915B0390915C0380915B0390915C03F8
:100A20000A9780F48091720180917201823018F4EB
:100A300088EC0E94D50080917201853019F480E025
:100A40000E94D50080915B0390915C030A9758F156
:100A500080915B0390915C038234910520F5809135
:100A60007201833038F0809172018A3018F488EC7A
:100A70000E94D70080917201873019F480E00E94B3
:100A8000D700809172018A3038F0809172018F30E6
:100A900018F488EC0E94D500809172018F3019F40F
:100AA00080E00E94D50080915B0390915C038134CB
:100AB000910560F180915B0390915C03893791050A
:100AC00028F5809172018F3038F080917201863163
:100AD00018F488EC0E94D70080917201863119F4D5
:100AE00080E00E94D7002A9880917201863138F008
:100AF00080917201893118F488EC0E94D5008091B0
:100B00007201893119F480E00E94D50080915B0365
:100B100090915C038837910560F180915B0390911F
:100B20005C038A3B910528F580917201893138F088
:100B300080917201803218F488EC0E94D700809175
:100B40007201803219F480E00E94D7002A9A8091C5
:100B50007201803238F080917201833218F488EC8F
:100B60000E94D50080917201833219F480E00E94C6
:100B7000D50080915B0390915C03893B910560F106
:100B800080915B0390915C03863F910528F58091ED
:100B90007201833238F0809172018A3218F488EC45
:100BA0000E94D700809172018A3219F480E00E947D
:100BB000D7002A98809172018A3238F080917201B0
:100BC0008D3218F488EC0E94D500809172018D322C
:100BD00019F480E00E94D50080915B0390915C0342
:100BE000853F910560F180915B0390915C038233B6
:100BF000914028F5809172018D3238F08091720118
:100C0000843318F488EC0E94D700809172018433F9
:100C100019F480E00E94D7002A9A809172018433EF
:100C200038F080917201873318F488EC0E94D50067
:100C300080917201873319F480E00E94D500809181
:100C40005B0390915C038133914008F4C1CD8091A6
:100C50005B0390915C038B34914008F0B9CD809197
:100C60007201873338F0809172018A3318F488EC6E
:100C70000E94D500809172018B3308F4A9CD80E0E9
:100C80000E94D500A5CD10927401109273011092AC
:100C900072010E9456021F920F931F921F93BF92E0
:100CA000AF92FF92EF920E94540860E080E00E94B1
:100CB0005B02C7010E940C0380915B0390915C036F
:100CC0009F938F931F927F92DF92CF923F922F92AA
:100CD0000E94540861E080E00E945B02C1010E9412
:100CE0000C030FB6F894DEBF0FBECDBF71CD8823C5
:100CF00019F0813039F00895E1ECF0E080818F7DCA
:100D000080830895E9ECF0E080818F7D80830895F1
:100D10001F920F920FB60F9211242F933F934F9370
:100D20005F936F937F938F939F93AF93BF93EF9353
:100D3000FF9386E891E00E946F018093C60086E8E9
:100D400091E00E949501813019F480E00E947706BD
:100D5000FF91EF91BF91AF919F918F917F916F9193
:100D60005F914F913F912F910F900FBE0F901F9069
:100D700018951F920F920FB60F9211242F933F9345
:100D80004F935F936F937F938F939F93AF93BF9393
:100D9000EF93FF936091C6008EE891E00E944B01B3
:100DA000FF91EF91BF91AF919F918F917F916F9143
:100DB0005F914F913F912F910F900FBE0F901F9019
:100DC00018951F920F920FB60F9211242F933F93F5
:100DD0004F935F936F937F938F939F93AF93BF9343
:100DE000EF93FF9386E791E00E946F018093CE001E
:100DF00086E791E00E949501882319F081E00E9426
:100E00007706FF91EF91BF91AF919F918F917F9165
:100E10006F915F914F913F912F910F900FBE0F9067
:100E20001F9018951F920F920FB60F9211242F93B7
:100E30003F934F935F936F937F938F939F93AF9362
:100E4000BF93EF93FF936091CE008EE791E00E94F5
:100E50004B01FF91EF91BF91AF919F918F917F9146
:100E60006F915F914F913F912F910F900FBE0F9017
:100E70001F901895882319F0813071F00895E62F9E
:100E8000F0E0EE0FFF1FE35AFE4F808191819093B7
:100E9000C5008093C4000895E62FF0E0EE0FFF1F19
:100EA000E35AFE4F808191819093CD008093CC00D6
:100EB0000895CF93C82F882319F08130C1F02DC039
:100EC00086E08093C20088E98093C1001092C00040
:100ED00046E96CE472E08EE891E00E94400146E948
:100EE00066EB71E086E891E00E94400116C086E062
:100EF0008093CA0088E98093C9001092C80040E13D
:100F000066EA71E08EE791E00E94400140E166E907
:100F100071E086E791E00E94400162E08C2F0E9420
:100F20003A07CF910895CF93C82F882319F08130C5
:100F300059F014C0E1ECF0E080818F7780838EE877
:100F400091E00E946F0119C0E9ECF0E080818F7799
:100F500080838EE791E00E946F0115C0E82FF0E0DA
:100F6000EE0FFF1FE75AFE4F808191810E946F01B3
:100F7000CC2319F0C13061F406C0E1ECF0E09081BF
:100F80009068908305C0E9ECF0E0908190689083D0
:100F9000CF910895E82FF0E0EE0FFF1FE75AFE4FC4
:100FA000808191810E9495010895E82FF0E0EE0F75
:100FB000FF1FE75AFE4F808191810E94980108959A
:100FC000AF92BF92DF92EF92FF920F931F93CF9356
:100FD000DF93082F7B01C42FDFB7F8940E94D50759
:100FE000DFBF181619060CF510E0D0E02197802F0E
:100FF0000E94CA0781110CC0DD24D394D10E570181
:10100000A10EB11C802F0E949307F50180831D2D36
:10101000F701E10FF11D319780818A3039F0812F7E
:1010200090E08C179D071CF301C010E0812F90E029
:10103000F701E80FF91F1082DF91CF911F910F91F7
:10104000FF90EF90DF90BF90AF900895AA1BBB1B5D
:1010500051E107C0AA1FBB1FA617B70710F0A61BB8
:10106000B70B881F991F5A95A9F780959095BC01D9
:10107000CD01089597FB072E16F4009407D077FD55
:1010800009D00E94260807FC05D03EF49095819572
:101090009F4F0895709561957F4F0895EE0FFF1F44
:1010A0000590F491E02D0994AEE0B0E0EAE5F8E0B7
:1010B0000C94150B0D891E8986E08C831A83098395
:1010C0008FEF9FE79E838D83AE01475E5F4F6F89F1
:1010D000788DCE0101960E947608EF81F885E00FA9
:1010E000F11F10822E96E4E00C94310BABE0B0E0DF
:1010F000ECE7F8E00C94070B6C017B018A01FC0122
:1011000017821682838181FFCCC1CE0101963C01FA
:10111000F6019381F70193FD859193FF81917F0102
:10112000882309F4BAC1853239F493FD859193FF80
:1011300081917F01853229F4B60190E00E946D0A09
:10114000E7CF912C212C312CFFE1F315D8F08B3215
:1011500079F038F4803279F08332A1F4232D2061C4
:101160001DC08D3261F0803369F4232D216016C0DB
:10117000832D8260382EE32DE4603E2E2AC0F32DAD
:10118000F8601DC037FC2DC020ED280F2A3040F03C
:101190008E32B9F436FC81C1232D2064322E19C061
:1011A00036FE06C08AE0989E200D1124922E11C0B2
:1011B000EAE02E9E200D1124222EF32DF0623F2E08
:1011C00008C08C3621F4832D8068382E02C0883602
:1011D00041F4F70193FD859193FF81917F01811186
:1011E000B3CF982F9F7D9554933028F40C5F1F4FF9
:1011F0009FE399830DC0833631F0833771F08335D7
:1012000009F059C021C0F801808189830E5F1F4F0A
:1012100088248394912C530113C02801F2E04F0ECF
:10122000511CF801A080B18036FE03C0692D70E02A
:1012300002C06FEF7FEFC5010E94620A4C0182017C
:10124000F32DFF773F2E16C0280122E0420E511CDD
:10125000F801A080B18036FE03C0692D70E002C0A5
:101260006FEF7FEFC5010E94570A4C01F32DF06824
:101270003F2E820133FC1BC0822D90E08816990618
:10128000B0F4B60180E290E00E946D0A2A94F4CF97
:10129000F50137FC859137FE81915F01B60190E041
:1012A0000E946D0A21102A9421E0821A910881146B
:1012B000910471F7E8C0843611F0893641F5F801E0
:1012C00037FE07C060817181828193810C5F1F4F5F
:1012D00008C060817181072E000C880B990B0E5F8E
:1012E0001F4FF32DFF763F2E97FF09C090958095F5
:1012F000709561957F4F8F4F9F4FF0683F2E2AE08A
:1013000030E0A3010E94A90A882E861845C08537BF
:1013100031F4232D2F7EB22E2AE030E025C0932D0C
:10132000997FB92E8F36C1F018F4883579F0B5C0A1
:10133000803719F0883721F0B0C0E92FE061BE2E68
:10134000B4FE0DC0FB2DF460BF2E09C034FE0AC0F0
:10135000292F2660B22E06C028E030E005C020E12B
:1013600030E002C020E132E0F801B7FE07C0608142
:101370007181828193810C5F1F4F06C060817181F2
:1013800080E090E00E5F1F4FA3010E94A90A882E03
:101390008618FB2DFF773F2E36FE0DC0232D2E7FA6
:1013A000A22E891458F434FE0BC032FC09C0832DE0
:1013B0008E7EA82E05C0B82CA32C03C0B82C01C06B
:1013C000B92CA4FE0FC0FE01E80DF11D8081803311
:1013D00021F49A2D997EA92E09C0A2FE06C0B394CD
:1013E000B39404C08A2D867809F0B394A3FC11C08D
:1013F000A0FE06C0B21488F4280C922C9B180EC0D4
:10140000B21460F4B60180E290E00E946D0AB394D9
:10141000F7CFB21418F42B1802C0982C212CA4FE7C
:1014200010C0B60180E390E00E946D0AA2FE17C0D2
:10143000A1FC03C088E790E002C088E590E0B60117
:101440000CC08A2D867859F0A1FE02C08BE201C043
:1014500080E2A7FC8DE2B60190E00E946D0A89143B
:1014600038F4B60180E390E00E946D0A9A94F7CFB9
:101470008A94F301E80DF11D8081B60190E00E948D
:101480006D0A8110F5CF222009F442CEB60180E228
:1014900090E00E946D0A2A94F6CFF601868197812A
:1014A00002C08FEF9FEF2B96E2E10C94230BFC011F
:1014B0000590615070400110D8F7809590958E0F7F
:1014C0009F1F0895FC016150704001900110D8F7F2
:1014D000809590958E0F9F1F08950F931F93CF9324
:1014E000DF93FB01238121FD03C08FEF9FEF2CC011
:1014F00022FF16C046815781248135814217530748
:1015000044F4A081B1819D012F5F3F4F318320833F
:101510008C93268137812F5F3F4F3783268314C0FA
:101520008B01EC01FB010084F185E02D0995892BED
:10153000E1F6D80116968D919C9117970196179612
:101540009C938E931697CE01DF91CF911F910F91AF
:101550000895FA01AA27283051F1203181F1E89449
:101560006F936E7F6E5F7F4F8F4F9F4FAF4FB1E096
:101570003ED0B4E03CD0670F781F891F9A1FA11D91
:10158000680F791F8A1F911DA11D6A0F711D811D92
:10159000911DA11D20D009F468943F912AE0269F57
:1015A00011243019305D3193DEF6CF010895462FB6
:1015B0004770405D4193B3E00FD0C9F7F6CF462F97
:1015C0004F70405D4A3318F0495D31FD4052419300
:1015D00002D0A9F7EACFB4E0A695979587957795BD
:1015E0006795BA95C9F700976105710508959B0144
:1015F000AC010A2E06945795479537952795BA95CD
:10160000C9F7620F731F841F951FA01D08952F92A5
:101610003F924F925F926F927F928F929F92AF9282
:10162000BF92CF92DF92EF92FF920F931F93CF93CF
:10163000DF93CDB7DEB7CA1BDB0B0FB6F894DEBF66
:101640000FBECDBF09942A88398848885F846E848C
:101650007D848C849B84AA84B984C884DF80EE80D6
:10166000FD800C811B81AA81B981CE0FD11D0FB6DF
:10167000F894DEBF0FBECDBFED010895F894FFCF03
:10168000012D3E20783A202564006C313A25642CE7
:101690006C323A25642C743A25643A256400416E14
:1016A000676C653D2533642C204469723D256400D8
:1016B00054494D45004F564552212100783A202586
:1016C00033642C20793A2025336400673A2025338F
:1016D000642C20613A202564008E017E01CF0067D2
:1016E00000330019000C0008000300010001000095
:00000001FF
