:100000000C9483000C94A0000C94A0000C94A0000D
:100010000C94A0000C94A0000C94A0000C94A000E0
:100020000C94A0000C94A0000C94A0000C94A000D0
:100030000C94A0000C94A0000C94A0000C94A000C0
:100040000C94A0000C94A0000C94A0000C94A000B0
:100050000C9455030C9424030C94A0000C94A00061
:100060000C94A0000C94A0000C94A0000C94A00090
:100070000C94AE030C947D030C94A000D001D0012D
:10008000D001D001D001CE01CE01B801BA01BA0130
:10009000BA01BA01BC01BC01BC01BC01CE01CE0158
:1000A000BE01BE01BE01BE01BE01CE01CE01C00136
:1000B000C001C001C001CE01CE01CE01C201C2010A
:1000C000C201C201C201CE01CE01C401C601C601F6
:1000D000C601C601C801C801C801C801CE01CE01D0
:1000E000CA01CA01CA01CA01CA01CE01CE01CC01AE
:1000F000CC01CC01CC010F021302170226023502FB
:100100003B024102470211241FBECFEFD8E0DEBF01
:10011000CDBF11E0A0E0B1E0E6ECFEE002C005904A
:100120000D92A032B107D9F721E0A0E2B1E001C001
:100130001D92AE39B207E1F70E9496020C94610756
:100140000C940000089809980A98ECE7F0E0808188
:100150008F778083808180648083808180628083C8
:10016000EAE7F0E080818460808380818260808320
:100170008081816080838081806880830895239A54
:10018000249A84B5806A84BD84B58F7A84BD84B591
:10019000816084BD84B58D7F84BD16BC85B58160CA
:1001A00085BD85B5897F85BD089588BD0895FC010D
:1001B0007183608342831382148281E08583168277
:1001C0000895FC01868181111AC08381A081B181CB
:1001D000A80FB11D6C9315822381422F50E08281BC
:1001E00090E001974817590711F4138202C02F5F5E
:1001F000238393818481981302C081E086830895CC
:10020000FC01858181111BC09481492F50E0A081A0
:10021000B181A40FB51F8C911682228130E021504C
:1002200031094217530711F4148202C09F5F94836F
:1002300024819381291304C091E09583089580E07F
:100240000895FC018581089588B984EF91E0FC014F
:100250003197F1F717980197F1F7179A08951598C4
:1002600081E00E94240180E197E20197F1F7159A5D
:100270000895813011F080E001C082E0159884601B
:100280000E942401159A0895813011F484E001C080
:1002900080E0613009F48260413009F48160159892
:1002A00088600E942401159A08951F93CF93DF93CD
:1002B000182FC62FD42F159816988FEF87B981B1B4
:1002C000806E81B920E328B98FEF9FEFFC01319751
:1002D000F1F71798FC013197F1F7179A28B9FC014B
:1002E0003197F1F717980197F1F7179A28B984EF2A
:1002F00091E0FC013197F1F71798FC013197F1F784
:10030000179A28E328B9FC013197F1F7179801975C
:10031000F1F7179A88E30E942401812F0E94390186
:100320004D2F6C2F81E00E9444010E942F01DF912C
:10033000CF911F910895613011F490E401C090E0D5
:100340001598890F80680E942401159A0895159ABE
:1003500088231CF00E942401089590E0FC01E05CD9
:10036000F109ED33F105D0F4E25CFF4F0C94710418
:1003700083E417C085E415C089E413C08FE411C07D
:1003800085E50FC081E60DC083E60BC085E609C098
:1003900089E607C08FE605C085E703C08FE301C08B
:1003A00081E40E942401089540E061E081E00E9420
:1003B0005501109221011092200108950E942F01F1
:1003C00010922101089590912101292F22952F70DB
:1003D000813049F49F3118F0109221010DC09F5FC8
:1003E0009093210109C0911104C08FE180932101F4
:1003F00003C09150909321019091210192959F709B
:1004000081E0921301C080E0089590E0883091056A
:1004100008F042C0FC01E558FF4F0C94710481E0E4
:100420000E94E30139C080E00E94E30135C0809161
:100430002101803138F4805F8093210181E0809335
:1004400020012AC080518093210126C08091210182
:10045000803138F08F708093210181E080932001FA
:100460001BC0805F8093210117C0809121018F60A4
:100470008093210111C080912101807F809321010F
:100480000BC0809121018F708093210105C0809164
:100490002101805F8093210180912101682F629565
:1004A0006F708F700E949B010895CF93C82F803288
:1004B00068F48A3019F08D3029F020C083E00E9462
:1004C00005021CC085E00E94050218C08091200131
:1004D000813021F40E942F01109220018C2F0E9464
:1004E000A70181E00E94E301813041F48091210164
:1004F000682F62956F708F700E949B01CF91089555
:100500000F931F93CF93FC018081882359F08F01B3
:10051000C0E00E945502CF5FF801EC0FF11D808111
:100520008111F7CFCF911F910F910895CF93DF9352
:10053000CDB7DEB761970FB6F894DEBF0FBECDBF63
:10054000FE01319681E1DF011D928A95E9F70E9453
:10055000D40180E00E94F50378940A98129A229AB6
:100560000E94A2000E94BF000F2EF0E0CF2EF1E00B
:10057000DF2EF02DCE0101967C0102E880E00E9482
:1005800066048111FBCF0E942F04182F8238B9F422
:1005900080E00E94D5001F920F93DF92CF92FF92CE
:1005A000EF920E9477040E94DE01C7010E94800240
:1005B0000F900F900F900F900F900F90DFCF823819
:1005C000C8F4880F80950E94D5001F921F93DF9278
:1005D000CF92FF92EF920E9477040E94DE01C70142
:1005E0000E9480022A9A0F900F900F900F900F9008
:1005F0000F90C4CF833810F20E94D5001F921F9332
:10060000DF92CF92FF92EF920E9477040E94DE0168
:10061000C7010E9480022A980F900F900F900F90B0
:100620000F900F90ABCF882319F0813039F00895E7
:10063000E1ECF0E080818F7D80830895E9ECF0E0CB
:1006400080818F7D808308951F920F920FB60F9245
:1006500011242F933F934F935F936F937F938F93C7
:100660009F93AF93BF93EF93FF9380E391E00E943A
:1006700000018093C60080E391E00E942101813057
:1006800019F480E00E941303FF91EF91BF91AF91A5
:100690009F918F917F916F915F914F913F912F919A
:1006A0000F900FBE0F901F9018951F920F920FB6CC
:1006B0000F9211242F933F934F935F936F937F93E8
:1006C0008F939F93AF93BF93EF93FF936091C60077
:1006D00087E391E00E94E100FF91EF91BF91AF911C
:1006E0009F918F917F916F915F914F913F912F914A
:1006F0000F900FBE0F901F9018951F920F920FB67C
:100700000F9211242F933F934F935F936F937F9397
:100710008F939F93AF93BF93EF93FF9382E291E008
:100720000E9400018093CE0082E291E00E942101AC
:10073000882319F081E00E941303FF91EF91BF918C
:10074000AF919F918F917F916F915F914F913F9169
:100750002F910F900FBE0F901F9018951F920F9220
:100760000FB60F9211242F933F934F935F936F9384
:100770007F938F939F93AF93BF93EF93FF9360917A
:10078000CE0089E291E00E94E100FF91EF91BF91DC
:10079000AF919F918F917F916F915F914F913F9119
:1007A0002F910F900FBE0F901F901895882319F06E
:1007B000813071F00895E62FF0E0EE0FFF1FE35F48
:1007C000FE4F808191819093C5008093C40008956D
:1007D000E62FF0E0EE0FFF1FE35FFE4F8081918177
:1007E0009093CD008093CC000895CF93C82F882399
:1007F00019F08130C1F02DC086E08093C20088E9F5
:100800008093C1001092C00040E26EE771E087E380
:1008100091E00E94D70040E26EE571E080E391E054
:100820000E94D70016C086E08093CA0088E98093B2
:10083000C9001092C80040E16EE471E089E291E0E5
:100840000E94D70040E16EE371E082E291E00E94F5
:10085000D70062E08C2F0E94D603CF910895CF93EA
:10086000C82F882319F0813059F014C0E1ECF0E072
:1008700080818F77808387E391E00E94000119C017
:10088000E9ECF0E080818F77808389E291E00E943B
:10089000000115C0E82FF0E0EE0FFF1FE75FFE4FED
:1008A000808191810E940001CC2319F0C13061F454
:1008B00006C0E1ECF0E090819068908305C0E9EC1F
:1008C000F0E0908190689083CF910895E82FF0E058
:1008D000EE0FFF1FE75FFE4F808191810E94210193
:1008E0000895EE0FFF1F0590F491E02D0994AEE0FE
:1008F000B0E0EDE7F4E00C9438070D891E8986E03E
:100900008C831A8309838FEF9FE79E838D83AE01CB
:10091000475E5F4F6F89788DCE0101960E949904E2
:10092000EF81F885E00FF11F10822E96E4E00C9421
:100930005407ABE0B0E0EFE9F4E00C942A076C0157
:100940007B018A01FC0117821682838181FFCCC161
:10095000CE0101963C01F6019381F70193FD85914B
:1009600093FF81917F01882309F4BAC1853239F45C
:1009700093FD859193FF81917F01853229F4B60122
:1009800090E00E949006E7CF912C212C312CFFE1C2
:10099000F315D8F08B3279F038F4803279F0833265
:1009A000A1F4232D20611DC08D3261F0803369F4E4
:1009B000232D216016C0832D8260382EE32DE46044
:1009C0003E2E2AC0F32DF8601DC037FC2DC020ED4F
:1009D000280F2A3040F08E32B9F436FC81C1232D25
:1009E0002064322E19C036FE06C08AE0989E200D83
:1009F0001124922E11C0EAE02E9E200D1124222EE9
:100A0000F32DF0623F2E08C08C3621F4832D8068D0
:100A1000382E02C0883641F4F70193FD859193FF8B
:100A200081917F018111B3CF982F9F7D9554933091
:100A300028F40C5F1F4F9FE399830DC0833631F07C
:100A4000833771F0833509F059C021C0F8018081E6
:100A500089830E5F1F4F88248394912C530113C008
:100A60002801F2E04F0E511CF801A080B18036FE43
:100A700003C0692D70E002C06FEF7FEFC5010E94D7
:100A800085064C018201F32DFF773F2E16C0280109
:100A900022E0420E511CF801A080B18036FE03C056
:100AA000692D70E002C06FEF7FEFC5010E947A06EA
:100AB0004C01F32DF0683F2E820133FC1BC0822DC8
:100AC00090E088169906B0F4B60180E290E00E94AA
:100AD00090062A94F4CFF50137FC859137FE819179
:100AE0005F01B60190E00E94900621102A9421E057
:100AF000821A91088114910471F7E8C0843611F0CC
:100B0000893641F5F80137FE07C060817181828125
:100B100093810C5F1F4F08C060817181072E000C0C
:100B2000880B990B0E5F1F4FF32DFF763F2E97FF1B
:100B300009C090958095709561957F4F8F4F9F4F1D
:100B4000F0683F2E2AE030E0A3010E94CC06882EF8
:100B5000861845C0853731F4232D2F7EB22E2AE02A
:100B600030E025C0932D997FB92E8F36C1F018F44F
:100B7000883579F0B5C0803719F0883721F0B0C0DA
:100B8000E92FE061BE2EB4FE0DC0FB2DF460BF2E38
:100B900009C034FE0AC0292F2660B22E06C028E004
:100BA00030E005C020E130E002C020E132E0F80191
:100BB000B7FE07C060817181828193810C5F1F4FF6
:100BC00006C06081718180E090E00E5F1F4FA3013D
:100BD0000E94CC06882E8618FB2DFF773F2E36FE0E
:100BE0000DC0232D2E7FA22E891458F434FE0BC085
:100BF00032FC09C0832D8E7EA82E05C0B82CA32CF4
:100C000003C0B82C01C0B92CA4FE0FC0FE01E80D32
:100C1000F11D8081803321F49A2D997EA92E09C07F
:100C2000A2FE06C0B394B39404C08A2D867809F05E
:100C3000B394A3FC11C0A0FE06C0B21488F4280C23
:100C4000922C9B180EC0B21460F4B60180E290E0C2
:100C50000E949006B394F7CFB21418F42B1802C078
:100C6000982C212CA4FE10C0B60180E390E00E94D5
:100C70009006A2FE17C0A1FC03C088E790E002C066
:100C800088E590E0B6010CC08A2D867859F0A1FE67
:100C900002C08BE201C080E2A7FC8DE2B60190E0C9
:100CA0000E949006891438F4B60180E390E00E9417
:100CB00090069A94F7CF8A94F301E80DF11D808194
:100CC000B60190E00E9490068110F5CF222009F431
:100CD00042CEB60180E290E00E9490062A94F6CFC0
:100CE000F6018681978102C08FEF9FEF2B96E2E19C
:100CF0000C944607FC010590615070400110D8F734
:100D0000809590958E0F9F1F0895FC016150704053
:100D100001900110D8F7809590958E0F9F1F089530
:100D20000F931F93CF93DF93FB01238121FD03C01A
:100D30008FEF9FEF2CC022FF16C046815781248180
:100D400035814217530744F4A081B1819D012F5F83
:100D50003F4F318320838C93268137812F5F3F4F14
:100D60003783268314C08B01EC01FB010084F185DD
:100D7000E02D0995892BE1F6D80116968D919C916D
:100D80001797019617969C938E931697CE01DF9135
:100D9000CF911F910F910895FA01AA27283051F1A0
:100DA000203181F1E8946F936E7F6E5F7F4F8F4F9C
:100DB0009F4FAF4FB1E03ED0B4E03CD0670F781FFB
:100DC000891F9A1FA11D680F791F8A1F911DA11DE0
:100DD0006A0F711D811D911DA11D20D009F4689419
:100DE0003F912AE0269F11243019305D3193DEF6C1
:100DF000CF010895462F4770405D4193B3E00FD077
:100E0000C9F7F6CF462F4F70405D4A3318F0495D61
:100E100031FD4052419302D0A9F7EACFB4E0A69544
:100E20009795879577956795BA95C9F70097610566
:100E3000710508959B01AC010A2E069457954795BC
:100E400037952795BA95C9F7620F731F841F951FB1
:100E5000A01D08952F923F924F925F926F927F92C2
:100E60008F929F92AF92BF92CF92DF92EF92FF92BA
:100E70000F931F93CF93DF93CDB7DEB7CA1BDB0B66
:100E80000FB6F894DEBF0FBECDBF09942A8839880B
:100E900048885F846E847D848C849B84AA84B98412
:100EA000C884DF80EE80FD800C811B81AA81B9811E
:100EB000CE0FD11D0FB6F894DEBF0FBECDBFED0132
:060EC0000895F894FFCF35
:100EC6002D3E20783A2025640037012901CF00679E
:100ED60000330019000C00080003000100010000A7
:00000001FF
